:100000000EC01EC01DC01CC01BC01AC019C018C025
:1000100017C016C03F065B4F666D7D077F6F1124CA
:100020001FBECFE9CDBF10E0A0E6B0E0EEECF3E0FC
:1000300002C005900D92A236B107D9F7A7D0C5C16D
:10004000DFCFC09AC19A82E08A95F1F7C0980895EF
:10005000C19882E08A95F1F7C09882E08A95F1F71D
:10006000C19A82E08A95F1F7C09A089598E0C19804
:1000700022E02A95F1F780FF02C0C09A01C0C09823
:10008000C19A22E02A95F1F78695915081F7C1989F
:10009000B898C09A82E08A95F1F781E0B09902C0E1
:1000A00080E002C0B89AC09892E09A95F1F7C19AA0
:1000B00022E02A95F1F7C19892E09A95F1F7B89A63
:1000C0000895CF93811102C0C0E001C0C8E068303C
:1000D00008F067E0C62BC0936100B3DF8C2F806807
:1000E000C5DFCF91B5CF97B3936097BB98B39C7F93
:1000F00098BBE7CF609161006770E3CF682F6770AE
:10010000809161008870DDCF1F93CF93DF931F92A2
:10011000CDB7DD27182F698394DF84E4A7DF98DF4C
:1001200090DF812F8370806CA1DF6981862F9EDF35
:100130000F90DF91CF911F918BCF6A3030F4E62F73
:10014000F0E0EC5EFF4F649101C060E0813031F47B
:10015000909160009078692B60936000D5CF90916A
:100160006000882311F0906801C09F779093600031
:100170006091600081E0C8CFCF93C0E060E08C2F39
:10018000C3DFCF5FC430D1F7CF91089565E081E040
:10019000AADFBC9842E0D42E54E6E52EF12C0AE00A
:1001A00010E030E1C32EC0E0D0E0D7B83E98379AD7
:1001B000369A3699FECF64B185B170E0782B8827E6
:1001C00077FD8095982F28EE33E040E050E073D023
:1001D00029013A01D301C2012AE0B695A795979566
:1001E00087952A95D1F765E070E03FD0C80FD91FF9
:1001F000CA94C110DACF84E0D595C7958A95E1F706
:1002000063E683E081DFCE01B70140D09B01CB01E3
:1002100099276CE97FEF29D08C0F9D1FB80136D04C
:10022000D62F822F6CE918D0C80F8D2F66EF14D00F
:10023000C80F622F80E081DF6D2F81E07EDF6C2FA1
:1002400082E07BDF2FEB84ED91E0215080409040F5
:10025000E1F700C00000A5CF002480FD060E660F68
:1002600011F08695D1F7802D08950024552704C0FC
:10027000080E591F880F991F009729F076956795EA
:10028000B8F37105B9F7802D952F089597FB072EC8
:1002900016F4009406D077FD08D055D007FC05D0A1
:1002A0003EF4909581959F4F0895709561957F4F8D
:1002B000089568940010E894A0E0B0E0E1E6F1E071
:1002C0001DC0EFEFE7F959016A015E23550FEE08F3
:1002D000FE2C87019B01AC019E23990F660B762FA4
:1002E000CB0145D0CDB7DD27EAE01FC02F923F926A
:1002F0004F925F926F927F928F929F92AF92BF9236
:10030000CF92DF92EF92FF920F931F93CF93DF93E1
:10031000CDB7CA1BCDBFDD2709942A883988488804
:100320005F846E847D848C849B84AA84B984C88411
:10033000DF80EE80FD800C811B81AA81D981CE0FE8
:10034000CDBFCA2F0895AA1BBB1B51E107C0AA1F2E
:10035000BB1FA617B70710F0A61BB70B881F991F66
:100360005A95A9F780959095BC01CD010895DF932A
:10037000CF939F92A0E49A2E0024D001E001F001D7
:1003800016950795F794E794D794C794B794A794D4
:1003900048F41068A20FB31FC41FD51FE61FF71F34
:1003A000081E191E220F331F441F551F661F771F7B
:1003B000881F991F9A9421F79D01AE01BF01C001CA
:0E03C00011249F90CF91DF910895F894FFCF04
:0203CE00FF0F1F
:00000001FF
